:1001950011083D3D5359532050415353574F524435
:1001A5003D3D0011192A2A2A2A2A2A2A2A2A2A2AD8
:0601B5002A2A2A2A2A0072
:1001BC001201E0D2B77FC87E0012013CC2B77FC8E3
:1001CC007E0012013C1200E87FC87E0012013C1236
:0401DC00008F80FE12
:0A013200540F4290D2B77F027E0006
:10013C00EF1FAA0670011E4A601EE4FDEDC3943247
:10014C007480948050EAE4FCECC394147480948022
:08015C0050030C80F30D80E458
:010164002278
:1001E00053B23F53B13F5392F05391F07F0A7E00D8
:0301F00002013CCD
:1000E800E4FD7F2812016C7F0A7E0012013CD2B722
:1000F8007F0A7E0012013CC2B77F0A7E0012013CD3
:10010800E4FD7F0C12016C7F0A7E0012013CE4FDC5
:100118007F0612016C7F0A7E0012013CE4FD7F011C
:0A01280012016C7F0A7E0002013C08
:10008F00E4FD7F8012016C7F057E0012013CE4F5D8
:10009F002AC3E52A941074809480501074081201BA
:1000AF00657F017E0012013C052A80E5E4FD7FC0DB
:1000BF0012016C7F057E0012013CE4F52AC3E52A8C
:1000CF00941074809480501074191201657FC87E4B
:0800DF000012013C052A80E536
:0100E70022F6
:07016500252AF8E6FF7D01E9
:02016C00AB07DF
:10016E00ED24FF92B61201385390F0EBC4540F12E7
:10017E000132C2B71201385390F0EB120132C2B7FE
:07018E007F027E0002013C2C
:03000000020003F8
:0C000300787FE4F6D8FD75812A02004ADF
:10000F000201BCE493A3F8E493A34003F68001F24A
:10001F0008DFF48029E493A3F85407240CC8C333F2
:10002F00C4540F4420C8834004F456800146F6DFC1
:10003F00E4800B0102040810204080900195E47EBB
:10004F00019360BCA3FF543F30E509541FFEE493B6
:10005F00A360010ECF54C025E060A840B8E493A37D
:10006F00FAE493A3F8E493A3C8C582C8CAC583CAA8
:10007F00F0A3C8C582C8CAC583CADFE9DEE780BE60
:0101BB000043
:00000001FF
