:0E013B001201497B017D607F0112000380FEEE
:1000EC00EF1FAA0670011E4A601EE4FDEDC3943298
:1000FC007480948050EAE4FCECC394147480948073
:08010C0050030C80F30D80E4A8
:0101140022C8
:0D0149004392405391BF7F0A7E000200ECFC
:100003008B0843BA80EF24FE601F2402703090FEF9
:1000130003E044C0F090FE03E030E0F990FE00E01E
:1000230054FDF0E04401F0801590FE04E04480F0BC
:1000330090FE04E030E0F990FE00E04403F0ED129E
:100043000115006401007102007E04008B08009812
:100053001000A52000B24000BF6000CC7F0000006C
:10006300D790FE05E05480F0E04401F0806690FEF6
:1000730005E05480F0E04402F0805990FE05E0541E
:1000830080F0E04404F0804C90FE05E05480F0E002
:100093004408F0803F90FE05E05480F0E04410F007
:1000A300803290FE05E05480F0E04420F0802590FB
:1000B300FE05E05480F0E04440F0801890FE05E037
:1000C3005480F0E04460F0800B90FE05E05480F033
:1000D300E0447FF0E50890FE057006E0547FF08071
:0900E30004E04480F053BA7F22CE
:03000000020156A4
:0C015600787FE4F6D8FD75810802013BBB
:10011500D083D082F8E4937012740193700DA3A379
:1001250093F8740193F5828883E47374029368608D
:06013500EFA3A3A380DF8D
:00000001FF
