:10004400A1BE55534552A1BF3A4B3120697320706C
:10005400726573736564210D0A00A1BE5553455240
:10006400A1BF3A4B32206973207072657373656463
:04007400210D0A0050
:100003001200E81200A17F647E0012007820B4166B
:100013007F057E0012007820B40C7BFF7A007944C0
:100023001200D530B4FD20B3E47F057E00120078C2
:1000330020B3DA7BFF7A00795E1200D520B3CE803D
:01004300FBC1
:10007800EF1FAA0670011E4A601EE4FDEDC394320C
:100088007480948050EAE4FCECC3941474809480E7
:0800980050030C80F30D80E41D
:0100A000223D
:0D00E80053B2E753B1E77F0A7E00020078B3
:1000A100759850438E40538EFE53890F758BE075C2
:0B00B1008DFEC2ABD28ED2ACD2AF22CB
:080101008F993099FDC299228B
:1000D5001200BCFF600C120101740129F9E43AFA1F
:0300E50080EE2288
:030000000200F506
:0C00F500787FE4F6D8FD75810702000357
:1000BC00BB010689828A83E0225002E722BBFE0242
:0900CC00E32289828A83E4932275
:00000001FF
