:1005700049443A2028256C5829482C002028256C0D
:070580006429442E0D0A005E
:1004D600E4F50BF50AF509F5081205877B017D6041
:1004E6007F0112035F1205591205B98F0B8E0A8D13
:1004F600098C08EC4D4E4F60EF7BFF7A0579708FC3
:10050600128E118D108C0F1200657BFF7A05797C97
:10051600850B12850A1185091085080F120065E4FE
:0A052600F50BF50AF509F50880BE93
:10053000EF1FAA0670011E4A601EE4FDEDC394324F
:100540007480948050EAE4FCECC39414748094802A
:0805500050030C80F30D80E460
:010558002280
:0A05A60000007F067EF9DEFEDFFC98
:0105B0002228
:100587004392405391BF53B2FB53B1FB7F0A7E00A6
:030597000205302A
:10035F008B0C43BA80EF24FE601F2402703090FE96
:10036F0003E044C0F090FE03E030E0F990FE00E0BF
:10037F0054FDF0E04401F0801590FE04E04480F05D
:10038F0090FE04E030E0F990FE00E04403F0ED123F
:10039F00044803C00103CD0203DA0403E70803F4A2
:1003AF0010040120040E40041B6004287F00000489
:1003BF003390FE05E05480F0E04401F0806690FE3B
:1003CF0005E05480F0E04402F0805990FE05E054BF
:1003DF0080F0E04404F0804C90FE05E05480F0E0A3
:1003EF004408F0803F90FE05E05480F0E04410F0A8
:1003FF00803290FE05E05480F0E04420F08025909C
:10040F00FE05E05480F0E04440F0801890FE05E0D7
:10041F005480F0E04460F0800B90FE05E05480F0D3
:10042F00E0447FF0E50C90FE057006E0547FF0800D
:09043F0004E04480F053BA7F226E
:10055900759850438E01438E0475D7C875D6FE43EE
:070569008E10C298C2992216
:0805B100C2998F993099FD22D7
:0505BF00AE070205B1CA
:0605B900E4FFFEFDFC2240
:0300000002059A5C
:0C059A00787FE4F6D8FD7581210204D6BC
:10044800D083D082F8E4937012740193700DA3A343
:1004580093F8740193F5828883E473740293686057
:06046800EFA3A3A380DF57
:10000300E51B240FF8E6051B22780C300702780F56
:10001300E475F0011204C602046E2000EB7F2ED2B9
:10002300008018EF540F2490D43440D4FF30040BD5
:10003300EF24BFB41A0050032461FFE51C600215CE
:100043001C051FE51F7002051E30070D780CE475B3
:10005300F0011204C6EF0204B40205BF7403D20711
:100063008003E4C207F51B8B0C8A0D890EE4F51C93
:10007300F51EF51FE51C60077F2012003E80F57515
:100083001DFFC201C200C202C203C205C206C208EA
:1000930012000CFF700D3007057F0012004FAF1FD9
:1000A300AE1E22B4255FC2D5C20412000CFF24D0B9
:1000B300B40A00501A75F00A781C30D50508B6FF4B
:1000C3000106C6A426F620D5047002D20380D924E3
:1000D300CFB41A00EF5004C2E5D20402024FD2019A
:1000E30080C6D20080C0D20280BCD2D580BAD205ED
:1000F30080B47F2012003E2002077401B51C00402B
:10010300F1120003FF12003E020077D208D20680EC
:1001130095120003FB120003FA120003F94A4B7015
:100123000679207A037BFF20022EE51C602A7E00DD
:100133008E8275830012048760060EEE651D70F0D3
:10014300C2D5EBC0E0EAC0E0E9C0E0EE120296D00F
:10015300E0F9D0E0FAD0E0FB12046EFF60AAEBC036
:10016300E0EAC0E0E9C0E012003ED0E02401F9D0AB
:10017300E03400FAD0E0FBE51D0460DCD51DD98036
:10018300877BFF7A027992D202809C791080027970
:1001930008C206C2088008D2D5790A8004790AC247
:1001A300D5E51D047002F51DE4FAFDFEFF12000300
:1001B300FC7B08200113120003FD7B1030000A12A0
:1001C3000003FE120003FF7B20EC3382D592D5504F
:1001D30013C3E43000069FFFE49EFEE42001039D69
:1001E300FDE49CFCE4CBF8C201EC700CCFCECDCC8B
:1001F300E824F8F870F38017C3EF33FFEE33FEED16
:1002030033FDEC33FCEB33FB994002FB0FD8E9EBF6
:10021300300105F8D0E0C448B201C0E00AEC4D4E0D
:100223004F78207B0070C2EAB51D0040BCC0E012CD
:100233000298D0F0D0E0200104C4C0E0C4B201C0F1
:10024300F0120027D0F0D5F0EB020077120448013A
:100253001453018E5800E54C00E14201924F019A7C
:0F02630044019A4900FA4301A0550184460184E1
:100272004501844703405000E92D00ED2E01102B6B
:1002820000F123010E2003292A00A94800000108D9
:100292003F3F3F00790AA2D5200314300509B91067
:1002A200020404B9080104A2D52006025001042068
:1002B20002689202B51C005034C0E07F203003195E
:1002C2007F30A20272067205500F1202EFC202C202
:1002D20006C205C2087F30800F300503E9C0E01274
:1002E200003E300503D0E0F9D0E0B51CCC30051754
:1002F2007F30B9100C12003E7F583004077F78809F
:1003020003B9080312003E3002057F2D02003E7F32
:10031200202008F87F2B2006F322920280CF286E3D
:10032200756C6C2900D2011200033001F8C2017809
:100332001C30D50108F60200A92D5043495812007D
:10034200032403B405004001E490033B9312002F01
:0D035200743A12002FD203751C0402018EB4
:10046E00BB010689828A83E0225002E722BBFE028C
:09047E00E32289828A83E49322BF
:10048700BB010CE58229F582E5833AF583E022502A
:1004970006E92582F8E622BBFE06E92582F8E22274
:0D04A700E58229F582E5833AF583E493228E
:1004B400BB010689828A83F0225002F722BBFE0127
:0204C400F32221
:1004C600FAE6FB0808E6F925F0F618E6CA3AF62237
:00000001FF
