:100A4D0011083130623A2020202020202020202043
:100A5D0020200011193038623A202020202020203B
:060A6D00202020202000E3
:10000300E4F52DF52CF52BF52A120A997B017D6079
:100013007F011207D2D2B77FC87E001209F4C2B79C
:100023007FC87E001209F41209A07FC87E0012095E
:10003300F41209471206188F2D8E2C8D2B8C2AEC67
:100043004D4E4F60EF7B007ACA799A783B12053C9C
:100053007D05120A747B007ACA799A783BAF2DAE7C
:100063002CAD2BAC2A12053CAC00AD01AE02AF03A4
:100073007B007AE179F5780512053C7D06120A7456
:100083007B007AE179F57805AF2DAE2CAD2BAC2A48
:1000930012053CAC00AD01AE02AF037B807A9679CA
:1000A30098780012053CEF2430FB7D077F01120A8C
:1000B3007A7B807A9679987800AF2DAE2CAD2BACF5
:1000C3002A12053CAC00AD01AE02AF037B407A427D
:1000D300790F780012053CEF2430FB7D087F011275
:1000E3000A7A7B407A42790F7800AF2DAE2CAD2B84
:1000F300AC2A12053CAC00AD01AE02AF037BA07A83
:10010300867901780012053CEF2430FB7D097F01DD
:10011300120A7A7BA07A8679017800AF2DAE2CADD6
:100123002BAC2A12053CAC00AD01AE02AF03E47B5D
:10013300107A27F9F812053CEF2430FB7D0A7F0182
:10014300120A7AE47B107A27F9F8AF2DAE2CAD2B87
:10015300AC2A12053CAC00AD01AE02AF03E47BE870
:100163007A03F9F812053CEF2430FB7D0B7F011273
:100173000A7AE47BE87A03F9F8AF2DAE2CAD2BAC09
:100183002A12053CAC00AD01AE02AF03E47B64FA76
:10019300F9F812053CEF2430FB7D0C7F01120A7A3B
:1001A300E47B64FAF9F8AF2DAE2CAD2BAC2A120523
:1001B3003CAC00AD01AE02AF03E47B0AFAF9F812DE
:1001C300053CEF2430FB7D0D7F01120A7AE47B0AA4
:1001D300FAF9F8AF2DAE2CAD2BAC2A12053CEB246B
:1001E30030FB7D0E7F01120A7AE47B10FAF9F8AF37
:1001F3002DAE2CAD2BAC2A12053CE47B10FAF9F89A
:1002030012053CE47B10FAF9F812053CE47B10FA82
:10021300F9F812053CE47B10FAF9F812053CEF54A7
:100223000FFFE4FEFDFC7B10FAF9F81204B1C006DF
:10023300C007E47B10FAF9F8AF2DAE2CAD2BAC2A36
:1002430012053CE47B10FAF9F812053CE47B10FA42
:10025300F9F812053CE47B10FAF9F812053CEF5467
:100263000FFFD0E02FF52FD0E03400F52EFEAF2F97
:100273007C007D6412045CEF2430FB7D057F021259
:100283000A7AAE2EAF2F7C007D6412045C7E007F61
:100293000ACFCDCFCECCCE12045CEF2430FB7D064B
:1002A3007F02120A7AAE2EAF2F7C007D0A12045C05
:1002B300ED2430FB7D077F02120A7A7B2C7D087FB9
:1002C30002120A7AE47B10FAF9F8AF2DAE2CAD2BAB
:1002D300AC2A12053CE47B10FAF9F812053CE47BE6
:1002E30010FAF9F812053CEF540FFFE4FEFDFCFB96
:1002F3007A10F9F81204B1C004C005C006C007E4BF
:100303007B10FAF9F8AF2DAE2CAD2BAC2A12053CBD
:10031300E47B10FAF9F812053CEF540FFFE4FEFDFD
:10032300FCFB7A01F9F81204B1D003D002D001D05A
:1003330000EB2FFFEA3EFEE93DFDE83CFCC004C0B4
:1003430005C006C007E47B10FAF9F8AF2DAE2CAD5B
:100353002BAC2A12053CEF540FFFE4FEFDFC7B108F
:10036300FAF9F81204B1D003D002D001D000EF2B78
:10037300FBEE3AFAED39F9EC38F8E52D540FFFE4CA
:10038300FEFDFCEB2FF533EE3AF532ED39F531ECAA
:1003930038F530E47B107A27F9F8AF33AE32AD315C
:1003A300AC3012053CEF2430FB7D097F02120A7A40
:1003B300E47B107A27F9F8AF33AE32AD31AC3012AB
:1003C300053CAC00AD01AE02AF03E47BE87A03F970
:1003D300F812053CEF2430FB7D0A7F02120A7AE40F
:1003E3007BE87A03F9F8AF33AE32AD31AC301205A6
:1003F3003CAC00AD01AE02AF03E47B64FAF9F81242
:10040300053CEF2430FB7D0B7F02120A7AE47B6408
:10041300FAF9F8AF33AE32AD31AC3012053CAC0073
:10042300AD01AE02AF03E47B0AFAF9F812053CEF23
:100433002430FB7D0C7F02120A7AE47B0AFAF9F876
:10044300AF33AE32AD31AC3012053CEB2430FB7D23
:090453000D7F02120A7A02003743
:0A09EA00540F4290D2B77F027E0046
:1009F400EF1FAA0670011E4A601EE4FDEDC3943287
:100A04007480948050EAE4FCECC394147480948061
:080A140050030C80F30D80E497
:010A1C0022B7
:0A0AB80000007F067EF9DEFEDFFC81
:010AC2002211
:100A99004392405391BF53B2FB53B1FB53B23F53FF
:0F0AA900B13F5392F05391F07F0A7E000209F49F
:1007D2008B3443BA80EF24FE601F2402703090FEF7
:1007E20003E044C0F090FE03E030E0F990FE00E048
:1007F20054FDF0E04401F0801590FE04E04480F0E6
:1008020090FE04E030E0F990FE00E04403F0ED12C7
:1008120005F2083301084002084D04085A08086727
:1008220010087420088140088E60089B7F00000831
:10083200A690FE05E05480F0E04401F0806690FE50
:1008420005E05480F0E04402F0805990FE05E05447
:1008520080F0E04404F0804C90FE05E05480F0E02B
:100862004408F0803F90FE05E05480F0E04410F030
:10087200803290FE05E05480F0E04420F080259024
:10088200FE05E05480F0E04440F0801890FE05E060
:100892005480F0E04460F0800B90FE05E05480F05C
:1008A200E0447FF0E53490FE057006E0547FF0806E
:0908B20004E04480F053BA7F22F7
:1009A000E4FD7F28120A247F0A7E001209F4D2B7E0
:1009B0007F0A7E001209F4C2B77F0A7E001209F492
:1009C000E4FD7F0C120A247F0A7E001209F4E4FD84
:1009D0007F06120A247F0A7E001209F4E4FD7F01DB
:0A09E000120A247F0A7E000209F4C7
:10094700E4FD7F80120A247F057E001209F4E4F596
:1009570034C3E53494107480948050107408120ADC
:100967001D7F017E001209F4053480E5E4FD7FC098
:10097700120A247F057E001209F4E4F534C3E53436
:1009870094107480948050107419120A1D7F017E90
:08099700001209F4053480E5AB
:01099F002235
:070A1D002534F8E6FF7D011E
:020A2400AB071E
:100A2600ED24FF92B61209F05390F0EBC4540F1266
:100A360009EAC2B71209F05390F0EB1209EAC2B7FD
:070A46007F027E000209F4AB
:060A7400EF2430FB7F01BE
:020A7A008B34BB
:100A7C00EF64017006ED2480F98004ED24C0F9AF19
:0D0A8C0001E4FD120A247D01AF34020A24AA
:10061800E4F534F544F543F542F541E47F0AFEFD7F
:10062800FCAB44AA43A942A841C31205CE7005FFFA
:10063800FEFDFC22E5442401F544E43543F543E49A
:100648003542F542E43541F541E4F53520B20CE593
:1006580035700274016004053580F1E53564646025
:10066800BAE4F535120AB830B2B1F534C3E53494BA
:1006780008748094805025E4F53530B211E4B5351E
:1006880009E4B401057536018004053580EC120AC9
:10069800B830B208E5367004053480D0E53660021B
:1006A8008024E53464086003020623F536F5353006
:1006B800B210E4B53508E4B40104F5368004053514
:1006C80080EDE5366006E4F536020623E4F539F5F3
:1006D80038F537F53BF53AFBEBC3940B74809480FF
:1006E80040030207A3E4FAF9EAC3940574809480EE
:1006F800400302077F120AB830B205753C01800337
:10070800E4F53CEAC39404748094805038EBC394B5
:100718000A74809480502EAF40AE3FAD3EAC3D7819
:10072800011205DF8F408E3F8D3E8C3DE4FCFDFEBF
:10073800E540253CF540EE353FF53FED353EF53ECD
:10074800EC353DF53DE53C29F974372AF8E53C26BA
:10075800F6E4F535E53C24FF30B201B34011E4B5C9
:100768003509E4B401057536018004053580E5E5F1
:100778003670040A0206F0EBC3940A748094805021
:1007880016E920E004E536600EE4F540F53FF53E55
:10079800F53D75360180040B0206E0E5367014E578
:1007A8003730E01DE53830E018E53930E013E53A38
:1007B80030E00EE4F536F540F53FF53EF53D02062E
:0907C80023AF40AE3FAD3EAC3D55
:0107D1002205
:030000000208BB38
:0C08BB00787FE4F6D8FD75814402090244
:10045C00BC000BBE0029EF8DF084FFADF022E4CC84
:10046C00F875F008EF2FFFEE33FEEC33FCEE9DEC4D
:10047C00984005FCEE9DFE0FD5F0E9E4CEFD22ED93
:10048C00F8F5F0EE8420D21CFEADF075F008EF2FDD
:10049C00FFED33FD4007985006D5F0F222C398FDCE
:0504AC000FD5F0EA226B
:1004B100E88FF0A4CC8BF0A42CFCE98EF0A42CFCEA
:1004C1008AF0EDA42CFCEA8EF0A4CDA8F08BF0A468
:1004D1002DCC3825F0FDE98FF0A42CCD35F0FCEBC7
:1004E1008EF0A4FEA9F0EB8FF0A4CFC5F02ECD398C
:0F04F100FEE43CFCEAA42DCE35F0FDE43CFC22F9
:1005000075F008758200EF2FFFEE33FECD33CDCCB2
:1005100033CCC58233C5829BED9AEC99E582984035
:100520000CF582EE9BFEED9AFDEC99FC0FD5F0D612
:10053000E4CEFBE4CDFAE4CCF9A88222B800C1B93C
:100540000059BA002DEC8BF084CFCECDFCE5F0CB7A
:10055000F97818EF2FFFEE33FEED33FDEC33FCEBB3
:1005600033FB10D703994004EB99FB0FD8E5E4F96E
:10057000FA227818EF2FFFEE33FEED33FDEC33FC5B
:10058000C933C910D7059BE99A4007EC9BFCE99A4F
:10059000F90FD8E0E4C9FAE4CCFB2275F010EF2F94
:1005A000FFEE33FEED33FDCC33CCC833C810D70794
:1005B0009BEC9AE899400AED9BFDEC9AFCE899F8CF
:0E05C0000FD5F0DAE4CDFBE4CCFAE4C8F92262
:1005CE00EB9FF5F0EA9E42F0E99D42F0E89C45F083
:0105DE0022FA
:1005DF00E8600FEFC333FFEE33FEED33FDEC33FC7A
:0305EF00D8F1221E
:1005F200D083D082F8E4937012740193700DA3A398
:1006020093F8740193F5828883E4737402936860AB
:06061200EFA3A3A380DFAB
:1008C700020003E493A3F8E493A34003F68001F244
:1008D70008DFF48029E493A3F85407240CC8C33332
:1008E700C4540F4420C8834004F456800146F6DF01
:1008F700E4800B0102040810204080900A4DE47E3A
:10090700019360BCA3FF543F30E509541FFEE493F5
:10091700A360010ECF54C025E060A840B8E493A3BC
:10092700FAE493A3F8E493A3C8C582C8CAC583CAE7
:10093700F0A3C8C582C8CAC583CADFE9DEE780BE9F
:010A73000082
:00000001FF
