:1008F40011124944543A2020202020202020202076
:1009040020200011234E756D3A2020202020202025
:060914002020202020003D
:10000300E4F537F536F535F5341208577B017D6095
:100013007F0112063DD2B77FC87E001208CBC2B75C
:100023007FC87E001208CB1208917FC87E00120899
:10003300CB1207B27F0112093F3094FD7F051209ED
:100043003F3094FD1203318F378E368D358C34EC6F
:100053004D4E4F60EF7B007ACA799A783B120527A1
:100063008F087B007ACA799A783BAF37AE36AD35C5
:10007300AC34120527AC00AD01AE02AF037B007AAE
:10008300E179F578051205278F097B007AE179F587
:100093007805AF37AE36AD35AC34120527AC00ADBD
:1000A30001AE02AF037B807A967998780012052718
:1000B3008F0A7B807A9679987800AF37AE36AD3564
:1000C300AC34120527AC00AD01AE02AF037B407A1E
:1000D30042790F78001205278F0B7B407A42790F04
:1000E3007800AF37AE36AD35AC34120527AC00AD72
:1000F30001AE02AF037BA07A86790178001205274F
:100103008F0C7BA07A8679017800AF37AE36AD3598
:10011300AC34120527AC00AD01AE02AF03E47B1093
:100123007A27F9F81205278F0DE47B107A27F9F85F
:10013300AF37AE36AD35AC34120527AC00AD01AEEA
:1001430002AF03E47BE87A03F9F81205278F0EE484
:100153007BE87A03F9F8AF37AE36AD35AC34120528
:1001630027AC00AD01AE02AF03E47B64FAF9F812E9
:1001730005278F0FE47B64FAF9F8AF37AE36AD3558
:10018300AC34120527AC00AD01AE02AF03E47B0A29
:10019300FAF9F81205278F10E47B0AFAF9F8AF375A
:1001A300AE36AD35AC34120527AF038F11E5087DAC
:1001B3000512091BE5097D0612091BE50A2430FB1C
:1001C3007D077F02120920E50B2430FB7D087F02A7
:1001D300120920E50C2430FB7D097F02120920E57A
:1001E3000D2430FB7D0A7F02120920E50E2430FB2B
:1001F3007D0B7F02120920E50F2430FB7D0C7F026B
:10020300120920E5102430FB7D0D7F02120920E541
:10021300112430FB7D0E7F02120920AC34AD35AEC4
:1002230036AF371206030239130D2F22028D130D39
:100233003E77000002DE7B417D057F011209207BB2
:10024300647D067F011209207B6D7D077F01120902
:10025300207B697D087F011209207B6E7D097F0168
:10026300120920D2CD7F0112093F3094FD7F021283
:10027300093F3094FD7F1412093F3094FD7F18121B
:10028300093F30940302032580F87B557D057F01E8
:100293001209207B737D067F011209207B657D0790
:1002A3007F011209207B727D087F011209207B20C8
:1002B3007D097F01120920D2CD7F0112093F3094BD
:1002C300FD7F0212093F3094FD7F1512093F3094E0
:1002D300FD7F1812093F20944980FB7B457D057FF4
:1002E300011209207B727D067F011209207B727D3A
:1002F300077F011209207B6F7D087F011209207B94
:10030300727D097F01120920C2CD7F0112093F309E
:1003130094FD7F0312093F3094FD7F1912093F308A
:0E03230094FDE4F537F536F535F53402004764
:0408C7007F0A7E0026
:1008CB00EF1FAA0670011E4A601EE4FDEDC39432B1
:1008DB007480948050EAE4FCECC39414748094808C
:0808EB0050030C80F30D80E4C2
:0108F30022E2
:07095F00D297120966C2974E
:0A09660000007F037E53DEFEDFFC7D
:010970002264
:0A09710000007F067EF9DEFEDFFCC9
:01097B002259
:100857004392405391BF43CA2053C9DF53B2FB535E
:10086700B1FB53B23F53B13F5392F05391F05392C0
:10087700EF5391EF4392205391DF43928053917F3F
:0A0887001208C7C2CDD297D2952205
:10063D008B3843BA80EF24FE601F2402703090FE89
:10064D0003E044C0F090FE03E030E0F990FE00E0DE
:10065D0054FDF0E04401F0801590FE04E04480F07C
:10066D0090FE04E030E0F990FE00E04403F0ED125E
:10067D0005DD069E0106AB0206B80406C50806D2C6
:10068D001006DF2006EC4006F96007067F00000724
:10069D001190FE05E05480F0E04401F0806690FE7C
:1006AD0005E05480F0E04402F0805990FE05E054DE
:1006BD0080F0E04404F0804C90FE05E05480F0E0C2
:1006CD004408F0803F90FE05E05480F0E04410F0C7
:1006DD00803290FE05E05480F0E04420F0802590BB
:1006ED00FE05E05480F0E04440F0801890FE05E0F7
:1006FD005480F0E04460F0800B90FE05E05480F0F3
:10070D00E0447FF0E53890FE057006E0547FF08000
:09071D0004E04480F053BA7F228D
:10089100E4FD7F281208121208C7D2B71208C7C296
:1008A100B71208C7E4FD7F0C1208121208C7E4FD55
:1008B1007F061208121208C7E4FD7F011208127F99
:0608C1000A7E000208CBD4
:1007B200E4FD7F801208127F057E001208CBE4F56B
:1007C20038C3E53894107480948050107412120863
:1007D2000B7F017E001208CB053880E5E4FD7FC067
:1007E2001208127F057E001208CBE4F538C3E53803
:1007F2009410748094805010742312080B7F017E31
:08080200001208CB053880E567
:01080A0022CB
:07080B002538F8E6FF7D012E
:02081200AB0732
:10081400ED24FF92B67F027E001208CB5390F0EBDA
:10082400C4540F540F4290D2B77F027E001208CBFB
:10083400C2B77F027E001208CB5390F0EB540F42F4
:1008440090D2B77F027E001208CBC2B77F027E002F
:030854000208CBCC
:05091B002430FB7F0207
:020920008B3812
:10092200EF64017006ED2480F98004ED24C0F9AF74
:0D09320001E4FD1208127D01AF3802081229
:10093F00AD0712095F12095FEDD3940074809480A4
:10094F00400DD295120966C2951209661D80E922E3
:10033100E4F538F548F547F546F545E47F0AFEFD55
:10034100FCAB48AA47A946A845C31205B97005FFE9
:10035100FEFDFC22E5482401F548E43547F547E474
:100361003546F546E43545F545E4F53920B20CE569
:1003710039700274016004053980F1E53964646003
:10038100BAE4F53912097130B2B1F538C3E53894E0
:1003910008748094805025E4F53930B211E4B53900
:1003A10009E4B40105753A018004053980EC1209AC
:1003B1007130B208E53A7004053880D0E53A600240
:1003C1008024E5386408600302033CF53AF53930CE
:1003D100B210E4B53908E4B40104F53A80040539F2
:1003E10080EDE53A6006E4F53A02033CE4F53DF5BB
:1003F1003CF53BF53FF53EFBEBC3940B74809480D9
:1004010040030204BCE4FAF9EAC3940574809480C1
:10041100400302049812097130B20575400180034E
:10042100E4F540EAC39404748094805038EBC3949B
:100431000A74809480502EAF44AE43AD42AC4178F3
:10044100011205CA8F448E438D428C41E4FCFDFEAE
:10045100E5442540F544EE3543F543ED3542F5429B
:10046100EC3541F541E54029F9743B2AF8E5402690
:10047100F6E4F539E54024FF30B201B34011E4B5AB
:100481003909E4B40105753A018004053980E5E5CF
:100491003A70040A020409EBC3940A7480948050F0
:1004A10016E920E004E53A600EE4F544F543F5422F
:1004B100F541753A0180040B0203F9E53A7014E540
:1004C1003B30E01DE53C30E018E53D30E013E53E12
:1004D10030E00EE4F53AF544F543F542F541020307
:0904E1003CAF44AE43AD42AC4116
:0104EA0022EF
:03000000020726CE
:0C072600787FE4F6D8FD75814802076D6D
:1004EB0075F008758200EF2FFFEE33FECD33CDCCC8
:1004FB0033CCC58233C5829BED9AEC99E58298404B
:10050B000CF582EE9BFEED9AFDEC99FC0FD5F0D627
:10051B00E4CEFBE4CDFAE4CCF9A88222B800C1B951
:10052B000059BA002DEC8BF084CFCECDFCE5F0CB8F
:10053B00F97818EF2FFFEE33FEED33FDEC33FCEBC8
:10054B0033FB10D703994004EB99FB0FD8E5E4F983
:10055B00FA227818EF2FFFEE33FEED33FDEC33FC70
:10056B00C933C910D7059BE99A4007EC9BFCE99A64
:10057B00F90FD8E0E4C9FAE4CCFB2275F010EF2FA9
:10058B00FFEE33FEED33FDCC33CCC833C810D707A9
:10059B009BEC9AE899400AED9BFDEC9AFCE899F8E4
:0E05AB000FD5F0DAE4CDFBE4CCFAE4C8F92277
:1005B900EB9FF5F0EA9E42F0E99D42F0E89C45F098
:0105C900220F
:1005CA00E8600FEFC333FFEE33FEED33FDEC33FC8F
:0305DA00D8F12233
:1005DD00D083D082F8E4937012740193700DA3A3AD
:1005ED0093F8740193F5828883E4737402936860C1
:0605FD00EFA3A3A380DFC1
:10060300D083D082E4937012740193700DA3A393EB
:10061300F8740193F5828883E4737402936C701207
:100623007403936D700C7404936E70067405936F6A
:0A06330060DDA3A3A3A3A3A380CA64
:10073200020003E493A3F8E493A34003F68001F2DA
:1007420008DFF48029E493A3F85407240CC8C333C8
:10075200C4540F4420C8834004F456800146F6DF97
:10076200E4800B01020408102040809008F4E47E2B
:10077200019360BCA3FF543F30E509541FFEE4938C
:10078200A360010ECF54C025E060A840B8E493A353
:10079200FAE493A3F8E493A3C8C582C8CAC583CA7E
:1007A200F0A3C8C582C8CAC583CADFE9DEE780BE36
:01091A0000DC
:00000001FF
