:10088A00110849443A20202020202020202020201E
:10089A00204800111949443A2020202020202020F5
:1008AA00202020204400102A3031323334353637A4
:0808BA00383941424344454630
:10000300E4F53DF53CF53BF53A1209517B017D6082
:100013007F01120672D2B77FC87E001208CDC2B725
:100023007FC87E001208CD1208407FC87E001208E8
:10003300CD1207E71203A08F3D8E3C8D3B8C3AEC2B
:100043004D4E4F60EFE47B10FAF9F8120596E47B0E
:1000530010FAF9F8120596E47B10FAF9F8120596EE
:10006300E47B10FAF9F8120596E47B10FAF9F8121A
:100073000596E47B10FAF9F8120596E47B10FAF979
:10008300F81205967D04120926E47B10FAF9F8AFFD
:100093003DAE3CAD3BAC3A120596E47B10FAF9F861
:1000A300120596E47B10FAF9F8120596E47B10FA30
:1000B300F9F8120596E47B10FAF9F8120596E47B39
:1000C30010FAF9F81205967D05120926E47B10FA59
:1000D300F9F8AF3DAE3CAD3BAC3A120596E47B106C
:1000E300FAF9F8120596E47B10FAF9F8120596E48A
:1000F3007B10FAF9F8120596E47B10FAF9F8120569
:1001030096EF540FFF742A2FF8E6FB7D067F01124A
:100113000932E47B10FAF9F8AF3DAE3CAD3BAC3AA3
:10012300120596E47B10FAF9F8120596E47B10FAAF
:10013300F9F8120596E47B10FAF9F8120596EF54D4
:100143000FFF742A2FF8E6FB7D077F01120932E4C3
:100153007B10FAF9F8AF3DAE3CAD3BAC3A120596D5
:10016300E47B10FAF9F8120596E47B10FAF9F81219
:100173000596EF540FFF742A2FF8E6FB7D087F01E5
:10018300120932E47B10FAF9F8AF3DAE3CAD3BAC5B
:100193003A120596E47B10FAF9F8120596EF540F1C
:1001A300FF742A2FF8E6FB7D097F01120932E47BF5
:1001B30010FAF9F8AF3DAE3CAD3BAC3A120596EF01
:1001C300540FFF742A2FF8E6FB7D0A7F01120932D0
:1001D300E53D540FFF742A2FF8E6FB7D0B7F0112D8
:1001E30009327B007ACA799A783BAF3DAE3CAD3B8E
:1001F300AC3A120596EF2430FB7D047F02120932DC
:100203007B007ACA799A783BAF3DAE3CAD3BAC3AC2
:10021300120596AC00AD01AE02AF037B007AE17923
:10022300F57805120596EF2430FB7D057F02120950
:10023300327B007AE179F57805AF3DAE3CAD3BAC5E
:100243003A120596AC00AD01AE02AF037B807A96FD
:1002530079987800120596EF2430FB7D067F021211
:1002630009327B807A9679987800AF3DAE3CAD3BFE
:10027300AC3A120596AC00AD01AE02AF037B407AF7
:1002830042790F7800120596EF2430FB7D077F0239
:100293001209327B407A42790F7800AF3DAE3CAD14
:1002A3003BAC3A120596AC00AD01AE02AF037BA0A6
:1002B3007A8679017800120596EF2430FB7D087F5A
:1002C300021209327BA07A8679017800AF3DAE3CF9
:1002D300AD3BAC3A120596AC00AD01AE02AF03E400
:1002E3007B107A27F9F8120596EF2430FB7D097FFE
:1002F30002120932E47B107A27F9F8AF3DAE3CAD28
:100303003BAC3A120596AC00AD01AE02AF03E47B01
:10031300E87A03F9F8120596EF2430FB7D0A7F0291
:10032300120932E47BE87A03F9F8AF3DAE3CAD3B0A
:10033300AC3A120596AC00AD01AE02AF03E47B64A8
:10034300FAF9F8120596EF2430FB7D0B7F021209B0
:1003530032E47B64FAF9F8AF3DAE3CAD3BAC3A1204
:100363000596AC00AD01AE02AF03E47B0AFAF9F8DF
:10037300120596EF2430FB7D0C7F02120932E47BD9
:100383000AFAF9F8AF3DAE3CAD3BAC3A120596EB39
:0D0393002430FB7D0D7F021209320200377D
:0A08C300540F4290D2B77F027E006E
:1008CD00EF1FAA0670011E4A601EE4FDEDC39432AF
:1008DD007480948050EAE4FCECC39414748094808A
:0808ED0050030C80F30D80E4C0
:0108F50022E0
:0A09700000007F067EF9DEFEDFFCCA
:01097A00225A
:100951004392405391BF53B2FB53B1FB53B23F5348
:0F096100B13F5392F05391F07F0A7E000208CD10
:100672008B3E43BA80EF24FE601F2402703090FE4E
:1006820003E044C0F090FE03E030E0F990FE00E0A9
:1006920054FDF0E04401F0801590FE04E04480F047
:1006A20090FE04E030E0F990FE00E04403F0ED1229
:1006B200064C06D30106E00206ED0406FA08070717
:1006C20010071420072140072E60073B7F00000718
:1006D2004690FE05E05480F0E04401F0806690FE12
:1006E20005E05480F0E04402F0805990FE05E054A9
:1006F20080F0E04404F0804C90FE05E05480F0E08D
:100702004408F0803F90FE05E05480F0E04410F091
:10071200803290FE05E05480F0E04420F080259085
:10072200FE05E05480F0E04440F0801890FE05E0C1
:100732005480F0E04460F0800B90FE05E05480F0BD
:10074200E0447FF0E53E90FE057006E0547FF080C5
:0907520004E04480F053BA7F2258
:10084000E4FD7F281208FD7F0A7E001208CDD2B792
:100850007F0A7E001208CDC2B77F0A7E001208CD43
:10086000E4FD7F0C1208FD7F0A7E001208CDE4FD36
:100870007F061208FD7F0A7E001208CDE4FD7F018D
:0A0880001208FD7F0A7E000208CD79
:1007E700E4FD7F801208FD7F057E001208CDE4F549
:1007F7003EC3E53E9410748094805010740812082C
:10080700F67F017E001208CD053E80E5E4FD7FC03E
:100817001208FD7F057E001208CDE4F53EC3E53ED4
:10082700941074809480501074191208F67F017E1A
:08083700001208CD053E80E52A
:01083F002296
:0708F600253EF8E6FF7D013D
:0208FD00AB0747
:1008FF00ED24FF92B61208C95390F0EBC4540F12B7
:10090F0008C3C2B71208C95390F0EB1208C3C2B79D
:07091F007F027E000208CDFB
:0C092600EF540FFF742A2FF8E6FB7F014E
:020932008B3EFA
:10093400EF64017006ED2480F98004ED24C0F9AF62
:0D09440001E4FD1208FD7D01AF3E0208FD3B
:1003A000E4F53EF54EF54DF54CF54BE47F0AFEFDC8
:1003B000FCAB4EAA4DA94CA84BC31206287005FFF2
:1003C000FEFDFC22E54E2401F54EE4354DF54DE4ED
:1003D000354CF54CE4354BF54BE4F53F20B20CE5DC
:1003E0003F700274016004053F80F1E53F64646082
:1003F000BAE4F53F12097030B2B1F53EC3E53E9460
:1004000008748094805025E4F53F30B211E4B53F84
:1004100009E4B401057540018004053F80EC120930
:100420007030B208E5407004053E80D0E5406002BF
:100430008024E53E640860030203ABF540F53F30DD
:10044000B210E4B53F08E4B40104F5408004053F70
:1004500080EDE5406006E4F5400203ABE4F543F5CA
:1004600042F541F545F544FBEBC3940B7480948051
:10047000400302052BE4FAF9EAC3940574809480E2
:10048000400302050712097030B20575460180036A
:10049000E4F546EAC39404748094805038EBC39426
:1004A0000A74809480502EAF4AAE49AD48AC47786C
:1004B000011206398F4A8E498D488C47E4FCFDFEB7
:1004C000E54A2546F54AEE3549F549ED3548F54802
:1004D000EC3547F547E54629F974412AF8E5462603
:1004E000F6E4F53FE54624FF30B201B34011E4B530
:1004F0003F09E4B401057540018004053F80E5E54E
:100500004070040A020478EBC3940A74809480500B
:1005100016E920E004E540600EE4F54AF549F548A7
:10052000F54775400180040B020468E5407014E54E
:100530004130E01DE54230E018E54330E013E5448A
:1005400030E00EE4F540F54AF549F548F547020379
:09055000ABAF4AAE49AD48AC471F
:01055900227F
:0300000002075B99
:0C075B00787FE4F6D8FD75814E0207A2FD
:10055A0075F008758200EF2FFFEE33FECD33CDCC58
:10056A0033CCC58233C5829BED9AEC99E5829840DB
:10057A000CF582EE9BFEED9AFDEC99FC0FD5F0D6B8
:10058A00E4CEFBE4CDFAE4CCF9A88222B800C1B9E2
:10059A000059BA002DEC8BF084CFCECDFCE5F0CB20
:1005AA00F97818EF2FFFEE33FEED33FDEC33FCEB59
:1005BA0033FB10D703994004EB99FB0FD8E5E4F914
:1005CA00FA227818EF2FFFEE33FEED33FDEC33FC01
:1005DA00C933C910D7059BE99A4007EC9BFCE99AF5
:1005EA00F90FD8E0E4C9FAE4CCFB2275F010EF2F3A
:1005FA00FFEE33FEED33FDCC33CCC833C810D7073A
:10060A009BEC9AE899400AED9BFDEC9AFCE899F874
:0E061A000FD5F0DAE4CDFBE4CCFAE4C8F92207
:10062800EB9FF5F0EA9E42F0E99D42F0E89C45F028
:01063800229F
:10063900E8600FEFC333FFEE33FEED33FDEC33FC1F
:03064900D8F122C3
:10064C00D083D082F8E4937012740193700DA3A33D
:10065C0093F8740193F5828883E473740293686051
:06066C00EFA3A3A380DF51
:10076700020003E493A3F8E493A34003F68001F2A5
:1007770008DFF48029E493A3F85407240CC8C33393
:10078700C4540F4420C8834004F456800146F6DF62
:10079700E4800B010204081020408090088AE47E60
:1007A700019360BCA3FF543F30E509541FFEE49357
:1007B700A360010ECF54C025E060A840B8E493A31E
:1007C700FAE493A3F8E493A3C8C582C8CAC583CA49
:1007D700F0A3C8C582C8CAC583CADFE9DEE780BE01
:0108C2000035
:00000001FF
