:10021A0011083D3D3D3D313630322B4B45593D3D70
:10022A003D3D0011194E554D3A2020202020202016
:09023A00202020202000012A00F0
:1000E800120263D2B77FC87E001201C1C2B77FC8AF
:1000F8007E001201C11201387FC87E001201C112B0
:10010800008F120182E52A75F00A84F52BE52A751D
:10011800F00A8485F02CE52B2430FB7D057F021244
:100128000244E52C2430FB7D067F0212024480D273
:0A01B700540F4290D2B77F027E0081
:1001C100EF1FAA0670011E4A601EE4FDEDC39432C2
:1001D1007480948050EAE4FCECC39414748094809D
:0801E10050030C80F30D80E4D3
:0101E90022F3
:1002630053B2E753B1E753B23F53B13F5392F05305
:0902730091F07F0A7E000201C136
:1001820020B4177F057E001201C120B40A052AE5BA
:100192002A64647002F52A30B4FD20B3177F057E0D
:1001A200001201C120B30AE52A7004F52A80021563
:0501B2002A30B3FD221C
:10013800E4FD7F281201F17F0A7E001201C1D2B7C7
:100148007F0A7E001201C1C2B77F0A7E001201C178
:10015800E4FD7F0C1201F17F0A7E001201C1E4FD6B
:100168007F061201F17F0A7E001201C1E4FD7F01C2
:0A0178001201F17F0A7E000201C1AE
:10008F00E4FD7F801201F17F057E001201C1E4F5CE
:10009F002DC3E52D941074809480501074081201B4
:1000AF00EA7F017E001201C1052D80E5E4FD7FC0CE
:1000BF001201F17F057E001201C1E4F52DC3E52D7C
:1000CF00941074809480501074191201EA7F017E8D
:0800DF00001201C1052D80E5AE
:0100E70022F6
:0701EA00252DF8E6FF7D0161
:0201F100AB075A
:1001F300ED24FF92B61201BD5390F0EBC4540F12DD
:1002030001B7C2B71201BD5390F0EB1201B7C2B7E9
:070213007F027E000201C121
:020244008B2D00
:10024600EF64017006ED2480F98004ED24C0F9AF57
:0D02560001E4FD1201F17D01AF2D0201F167
:03000000020003F8
:0C000300787FE4F6D8FD75812D02004ADC
:10000F000200E8E493A3F8E493A34003F68001F21F
:10001F0008DFF48029E493A3F85407240CC8C333F2
:10002F00C4540F4420C8834004F456800146F6DFC1
:10003F00E4800B010204081020408090021AE47E35
:10004F00019360BCA3FF543F30E509541FFEE493B6
:10005F00A360010ECF54C025E060A840B8E493A37D
:10006F00FAE493A3F8E493A3C8C582C8CAC583CAA8
:10007F00F0A3C8C582C8CAC583CADFE9DEE780BE60
:0102430000BA
:00000001FF
