:1002ED00110849443A2020202020202020202020C1
:1002FD00204800111949443A202020202020202098
:10030D00202020204400102A303132333435363746
:08031D003839414243444546D2
:0A03440000007F067EF9DEFEDFFCFC
:01034E00228C
:100325004392405391BF53B2FB53B1FB53B23F537A
:0F033500B13F5392F05391F07F0A7E0002000017
:1001BA008B4B43BA80EF24FE601F2402703090FEFE
:1001CA0003E044C0F090FE03E030E0F990FE00E066
:1001DA0054FDF0E04401F0801590FE04E04480F004
:1001EA0090FE04E030E0F990FE00E04403F0ED12E6
:1001FA0002C7021B01022802023504024208024F0A
:10020A0010025C2002694002766002837F000002CD
:10021A008E90FE05E05480F0E04401F0806690FE86
:10022A0005E05480F0E04402F0805990FE05E05465
:10023A0080F0E04404F0804C90FE05E05480F0E049
:10024A004408F0803F90FE05E05480F0E04410F04E
:10025A00803290FE05E05480F0E04420F080259042
:10026A00FE05E05480F0E04440F0801890FE05E07E
:10027A005480F0E04460F0800B90FE05E05480F07A
:10028A00E0447FF0E54B90FE057006E0547FF08075
:09029A0004E04480F053BA7F2215
:10000000E4F53AF54AF549F548F547E47F0AFEFD7F
:10001000FCAB4AAA49A948A847C31202A37005FF2E
:10002000FEFDFC22E54A2401F54AE43549F549E4A0
:100030003548F548E43547F547E4F53B20B20CE593
:100040003B700274016004053B80F1E53B64646031
:10005000BAE4F53B12034430B2B1F53AC3E53A9441
:1000600008748094805025E4F53B30B211E4B53B30
:1000700009E4B40105753C018004053B80EC1203E2
:100080004430B208E53C7004053A80D0E53C60029B
:100090008024E53A6408600302000BF53CF53B3030
:1000A000B210E4B53B08E4B40104F53C8004053B20
:1000B00080EDE53C6006E4F53C02000BE4F53FF51D
:1000C0003EF53DF541F540FBEBC3940B7480948005
:1000D000400302018BE4FAF9EAC39405748094802A
:1000E000400302016712034430B2057542018003E8
:1000F000E4F542EAC39404748094805038EBC394CE
:100100000A74809480502EAF46AE45AD44AC43781F
:10011000011202B48F468E458D448C43E4FCFDFEF3
:10012000E5462542F546EE3545F545ED3544F544C1
:10013000EC3543F543E54229F9743D2AF8E54226BA
:10014000F6E4F53BE54224FF30B201B34011E4B5DB
:100150003B09E4B40105753C018004053B80E5E5FD
:100160003C70040A0200D8EBC3940A748094805057
:1001700016E920E004E53C600EE4F546F545F5445B
:10018000F543753C0180040B0200C8E53C7014E5A2
:100190003D30E01DE53E30E018E53F30E013E5403E
:1001A00030E00EE4F53CF546F545F544F543020034
:0901B0000BAF46AE45AD44AC4373
:0101B9002223
:1002A300EB9FF5F0EA9E42F0E99D42F0E89C45F0B1
:0102B3002228
:1002B400E8600FEFC333FFEE33FEED33FDEC33FCA8
:0302C400D8F1224C
:1002C700D083D082F8E4937012740193700DA3A3C6
:1002D70093F8740193F5828883E4737402936860DA
:0602E700EFA3A3A380DFDA
:00000001FF
