:08013A001200D812000380FB43
:1000AF00EF1FAA0670011E4A601EE4FDEDC39432D5
:1000BF007480948050EAE4FCECC3941474809480B0
:0800CF0050030C80F30D80E4E6
:0100D7002206
:07011C00D297120123C297E4
:0A01230000007F037E24DEFEDFFCF7
:01012D0022AF
:1000D80053B2E753B1E75392EF5391EF4392205352
:1000E80091DF43928053917F7F0A7E001200AFD246
:0400F80097D29522E4
:1000030020B4257F057E001200AF20B4187F0112B3
:1000130000FC3094FD7F021200FC3094FD7F04123B
:1000230000FC3094FD30B4FD30B3030200AE7F0515
:100033007E001200AF20B3707F011200FC3094FDEC
:100043007F021200FC3094FD7F071200FC3094FD08
:100053007F081200FC3094FD7F0C1200FC3094FDED
:100063007F0A1200FC3094FD7F0C1200FC3094FDDB
:100073007F0C1200FC3094FD7F0B1200FC3094FDCA
:100083007F0C1200FC3094FD7F0D1200FC3094FDB8
:100093007F0E1200FC3094FD7F0F1200FC3094FDA4
:0C00A3007F101200FC3094FD30B3FD22F1
:1000FC00AD0712011C12011CEDD394007480948086
:10010C00400DD295120123C2951201231D80E922C4
:0300000002012ECC
:0C012E00787FE4F6D8FD75810702013AE5
:00000001FF
